{
  "contractName": "NFTAuction",
  "abi": [
    {
      "inputs": [],
      "stateMutability": "nonpayable",
      "type": "constructor"
    },
    {
      "anonymous": false,
      "inputs": [
        {
          "indexed": true,
          "internalType": "address",
          "name": "owner",
          "type": "address"
        },
        {
          "indexed": true,
          "internalType": "address",
          "name": "approved",
          "type": "address"
        },
        {
          "indexed": true,
          "internalType": "uint256",
          "name": "tokenId",
          "type": "uint256"
        }
      ],
      "name": "Approval",
      "type": "event"
    },
    {
      "anonymous": false,
      "inputs": [
        {
          "indexed": true,
          "internalType": "address",
          "name": "owner",
          "type": "address"
        },
        {
          "indexed": true,
          "internalType": "address",
          "name": "operator",
          "type": "address"
        },
        {
          "indexed": false,
          "internalType": "bool",
          "name": "approved",
          "type": "bool"
        }
      ],
      "name": "ApprovalForAll",
      "type": "event"
    },
    {
      "anonymous": false,
      "inputs": [
        {
          "indexed": true,
          "internalType": "address",
          "name": "from",
          "type": "address"
        },
        {
          "indexed": true,
          "internalType": "address",
          "name": "to",
          "type": "address"
        },
        {
          "indexed": true,
          "internalType": "uint256",
          "name": "tokenId",
          "type": "uint256"
        }
      ],
      "name": "Transfer",
      "type": "event"
    },
    {
      "inputs": [
        {
          "internalType": "uint256",
          "name": "",
          "type": "uint256"
        }
      ],
      "name": "AuctionsOfNFT",
      "outputs": [
        {
          "internalType": "uint256",
          "name": "minBid",
          "type": "uint256"
        },
        {
          "internalType": "address payable",
          "name": "highestBidder",
          "type": "address"
        },
        {
          "internalType": "uint256",
          "name": "highestBid",
          "type": "uint256"
        },
        {
          "internalType": "uint256",
          "name": "endTime",
          "type": "uint256"
        },
        {
          "internalType": "bool",
          "name": "ended",
          "type": "bool"
        },
        {
          "internalType": "bool",
          "name": "claimed",
          "type": "bool"
        }
      ],
      "stateMutability": "view",
      "type": "function"
    },
    {
      "inputs": [],
      "name": "NFTCounter",
      "outputs": [
        {
          "internalType": "uint256",
          "name": "",
          "type": "uint256"
        }
      ],
      "stateMutability": "view",
      "type": "function"
    },
    {
      "inputs": [],
      "name": "SaleCounter",
      "outputs": [
        {
          "internalType": "uint256",
          "name": "",
          "type": "uint256"
        }
      ],
      "stateMutability": "view",
      "type": "function"
    },
    {
      "inputs": [
        {
          "internalType": "uint256",
          "name": "",
          "type": "uint256"
        }
      ],
      "name": "allNFTs",
      "outputs": [
        {
          "internalType": "uint256",
          "name": "tokenID",
          "type": "uint256"
        },
        {
          "internalType": "string",
          "name": "tokenName",
          "type": "string"
        },
        {
          "internalType": "string",
          "name": "tokenURI",
          "type": "string"
        },
        {
          "internalType": "address payable",
          "name": "mintedBy",
          "type": "address"
        },
        {
          "internalType": "address payable",
          "name": "currentOwner",
          "type": "address"
        },
        {
          "internalType": "address payable",
          "name": "previousOwner",
          "type": "address"
        },
        {
          "internalType": "uint256",
          "name": "price",
          "type": "uint256"
        },
        {
          "internalType": "uint256",
          "name": "transNum",
          "type": "uint256"
        },
        {
          "internalType": "bool",
          "name": "onSale",
          "type": "bool"
        }
      ],
      "stateMutability": "view",
      "type": "function"
    },
    {
      "inputs": [
        {
          "internalType": "address",
          "name": "to",
          "type": "address"
        },
        {
          "internalType": "uint256",
          "name": "tokenId",
          "type": "uint256"
        }
      ],
      "name": "approve",
      "outputs": [],
      "stateMutability": "nonpayable",
      "type": "function"
    },
    {
      "inputs": [
        {
          "internalType": "address",
          "name": "",
          "type": "address"
        },
        {
          "internalType": "uint256",
          "name": "",
          "type": "uint256"
        }
      ],
      "name": "attendAuctions",
      "outputs": [
        {
          "internalType": "uint256",
          "name": "",
          "type": "uint256"
        }
      ],
      "stateMutability": "view",
      "type": "function"
    },
    {
      "inputs": [
        {
          "internalType": "address",
          "name": "",
          "type": "address"
        }
      ],
      "name": "attendAuctionsNum",
      "outputs": [
        {
          "internalType": "uint256",
          "name": "",
          "type": "uint256"
        }
      ],
      "stateMutability": "view",
      "type": "function"
    },
    {
      "inputs": [
        {
          "internalType": "address",
          "name": "owner",
          "type": "address"
        }
      ],
      "name": "balanceOf",
      "outputs": [
        {
          "internalType": "uint256",
          "name": "",
          "type": "uint256"
        }
      ],
      "stateMutability": "view",
      "type": "function"
    },
    {
      "inputs": [],
      "name": "collectionName",
      "outputs": [
        {
          "internalType": "string",
          "name": "",
          "type": "string"
        }
      ],
      "stateMutability": "view",
      "type": "function"
    },
    {
      "inputs": [],
      "name": "collectionNameSymbol",
      "outputs": [
        {
          "internalType": "string",
          "name": "",
          "type": "string"
        }
      ],
      "stateMutability": "view",
      "type": "function"
    },
    {
      "inputs": [],
      "name": "collectionid",
      "outputs": [
        {
          "internalType": "string",
          "name": "",
          "type": "string"
        }
      ],
      "stateMutability": "view",
      "type": "function"
    },
    {
      "inputs": [
        {
          "internalType": "uint256",
          "name": "",
          "type": "uint256"
        },
        {
          "internalType": "address",
          "name": "",
          "type": "address"
        }
      ],
      "name": "fundsByBidder",
      "outputs": [
        {
          "internalType": "uint256",
          "name": "",
          "type": "uint256"
        }
      ],
      "stateMutability": "view",
      "type": "function"
    },
    {
      "inputs": [
        {
          "internalType": "uint256",
          "name": "tokenId",
          "type": "uint256"
        }
      ],
      "name": "getApproved",
      "outputs": [
        {
          "internalType": "address",
          "name": "",
          "type": "address"
        }
      ],
      "stateMutability": "view",
      "type": "function"
    },
    {
      "inputs": [
        {
          "internalType": "address",
          "name": "owner",
          "type": "address"
        },
        {
          "internalType": "address",
          "name": "operator",
          "type": "address"
        }
      ],
      "name": "isApprovedForAll",
      "outputs": [
        {
          "internalType": "bool",
          "name": "",
          "type": "bool"
        }
      ],
      "stateMutability": "view",
      "type": "function"
    },
    {
      "inputs": [],
      "name": "name",
      "outputs": [
        {
          "internalType": "string",
          "name": "",
          "type": "string"
        }
      ],
      "stateMutability": "view",
      "type": "function"
    },
    {
      "inputs": [
        {
          "internalType": "uint256",
          "name": "tokenId",
          "type": "uint256"
        }
      ],
      "name": "ownerOf",
      "outputs": [
        {
          "internalType": "address",
          "name": "",
          "type": "address"
        }
      ],
      "stateMutability": "view",
      "type": "function"
    },
    {
      "inputs": [
        {
          "internalType": "address",
          "name": "from",
          "type": "address"
        },
        {
          "internalType": "address",
          "name": "to",
          "type": "address"
        },
        {
          "internalType": "uint256",
          "name": "tokenId",
          "type": "uint256"
        }
      ],
      "name": "safeTransferFrom",
      "outputs": [],
      "stateMutability": "nonpayable",
      "type": "function"
    },
    {
      "inputs": [
        {
          "internalType": "address",
          "name": "from",
          "type": "address"
        },
        {
          "internalType": "address",
          "name": "to",
          "type": "address"
        },
        {
          "internalType": "uint256",
          "name": "tokenId",
          "type": "uint256"
        },
        {
          "internalType": "bytes",
          "name": "_data",
          "type": "bytes"
        }
      ],
      "name": "safeTransferFrom",
      "outputs": [],
      "stateMutability": "nonpayable",
      "type": "function"
    },
    {
      "inputs": [
        {
          "internalType": "address",
          "name": "operator",
          "type": "address"
        },
        {
          "internalType": "bool",
          "name": "approved",
          "type": "bool"
        }
      ],
      "name": "setApprovalForAll",
      "outputs": [],
      "stateMutability": "nonpayable",
      "type": "function"
    },
    {
      "inputs": [
        {
          "internalType": "bytes4",
          "name": "interfaceId",
          "type": "bytes4"
        }
      ],
      "name": "supportsInterface",
      "outputs": [
        {
          "internalType": "bool",
          "name": "",
          "type": "bool"
        }
      ],
      "stateMutability": "view",
      "type": "function"
    },
    {
      "inputs": [],
      "name": "symbol",
      "outputs": [
        {
          "internalType": "string",
          "name": "",
          "type": "string"
        }
      ],
      "stateMutability": "view",
      "type": "function"
    },
    {
      "inputs": [
        {
          "internalType": "string",
          "name": "",
          "type": "string"
        }
      ],
      "name": "tokenNameExists",
      "outputs": [
        {
          "internalType": "bool",
          "name": "",
          "type": "bool"
        }
      ],
      "stateMutability": "view",
      "type": "function"
    },
    {
      "inputs": [
        {
          "internalType": "uint256",
          "name": "tokenId",
          "type": "uint256"
        }
      ],
      "name": "tokenURI",
      "outputs": [
        {
          "internalType": "string",
          "name": "",
          "type": "string"
        }
      ],
      "stateMutability": "view",
      "type": "function"
    },
    {
      "inputs": [
        {
          "internalType": "string",
          "name": "",
          "type": "string"
        }
      ],
      "name": "tokenURIExists",
      "outputs": [
        {
          "internalType": "bool",
          "name": "",
          "type": "bool"
        }
      ],
      "stateMutability": "view",
      "type": "function"
    },
    {
      "inputs": [
        {
          "internalType": "address",
          "name": "from",
          "type": "address"
        },
        {
          "internalType": "address",
          "name": "to",
          "type": "address"
        },
        {
          "internalType": "uint256",
          "name": "tokenId",
          "type": "uint256"
        }
      ],
      "name": "transferFrom",
      "outputs": [],
      "stateMutability": "nonpayable",
      "type": "function"
    },
    {
      "inputs": [],
      "name": "getTime",
      "outputs": [
        {
          "internalType": "uint256",
          "name": "",
          "type": "uint256"
        }
      ],
      "stateMutability": "view",
      "type": "function"
    },
    {
      "inputs": [
        {
          "internalType": "string",
          "name": "_name",
          "type": "string"
        },
        {
          "internalType": "string",
          "name": "_tokenURI",
          "type": "string"
        },
        {
          "internalType": "uint256",
          "name": "_price",
          "type": "uint256"
        }
      ],
      "name": "mintNFT",
      "outputs": [],
      "stateMutability": "nonpayable",
      "type": "function"
    },
    {
      "inputs": [
        {
          "internalType": "uint256",
          "name": "_tokenID",
          "type": "uint256"
        }
      ],
      "name": "getTokenOwner",
      "outputs": [
        {
          "internalType": "address",
          "name": "",
          "type": "address"
        }
      ],
      "stateMutability": "view",
      "type": "function"
    },
    {
      "inputs": [
        {
          "internalType": "uint256",
          "name": "_tokenID",
          "type": "uint256"
        }
      ],
      "name": "getTokenMetaData",
      "outputs": [
        {
          "internalType": "string",
          "name": "",
          "type": "string"
        }
      ],
      "stateMutability": "view",
      "type": "function"
    },
    {
      "inputs": [
        {
          "internalType": "address",
          "name": "_owner",
          "type": "address"
        }
      ],
      "name": "getTotalNumberOfTokensOwnedByAnAddress",
      "outputs": [
        {
          "internalType": "uint256",
          "name": "",
          "type": "uint256"
        }
      ],
      "stateMutability": "view",
      "type": "function"
    },
    {
      "inputs": [
        {
          "internalType": "uint256",
          "name": "_tokenID",
          "type": "uint256"
        },
        {
          "internalType": "uint256",
          "name": "_minBid",
          "type": "uint256"
        },
        {
          "internalType": "uint256",
          "name": "_duration",
          "type": "uint256"
        }
      ],
      "name": "beginAuction",
      "outputs": [
        {
          "internalType": "bool",
          "name": "success",
          "type": "bool"
        }
      ],
      "stateMutability": "nonpayable",
      "type": "function"
    },
    {
      "inputs": [
        {
          "internalType": "uint256",
          "name": "_tokenID",
          "type": "uint256"
        },
        {
          "internalType": "uint256",
          "name": "newBid",
          "type": "uint256"
        }
      ],
      "name": "increaseBid",
      "outputs": [
        {
          "internalType": "bool",
          "name": "success",
          "type": "bool"
        }
      ],
      "stateMutability": "nonpayable",
      "type": "function"
    },
    {
      "inputs": [
        {
          "internalType": "uint256",
          "name": "_tokenID",
          "type": "uint256"
        }
      ],
      "name": "endAuction",
      "outputs": [
        {
          "internalType": "bool",
          "name": "success",
          "type": "bool"
        }
      ],
      "stateMutability": "nonpayable",
      "type": "function"
    },
    {
      "inputs": [
        {
          "internalType": "uint256",
          "name": "_tokenID",
          "type": "uint256"
        }
      ],
      "name": "claimNFT",
      "outputs": [
        {
          "internalType": "bool",
          "name": "success",
          "type": "bool"
        }
      ],
      "stateMutability": "payable",
      "type": "function"
    }
  ],
  "bytecode": "0x60806040523480156200001157600080fd5b506040518060400160405280600e81526020017f4e465420436f6c6c656374696f6e0000000000000000000000000000000000008152506040518060400160405280600381526020017f4e465400000000000000000000000000000000000000000000000000000000008152508160009080519060200190620000969291906200023c565b508060019080519060200190620000af9291906200023c565b505050620000c26200010860201b60201c565b60079080519060200190620000d99291906200023c565b50620000ea620001a260201b60201c565b60099080519060200190620001019291906200023c565b5062000351565b60606000805462000119906200031b565b80601f016020809104026020016040519081016040528092919081815260200182805462000147906200031b565b8015620001985780601f106200016c5761010080835404028352916020019162000198565b820191906000526020600020905b8154815290600101906020018083116200017a57829003601f168201915b5050505050905090565b606060018054620001b3906200031b565b80601f0160208091040260200160405190810160405280929190818152602001828054620001e1906200031b565b8015620002325780601f10620002065761010080835404028352916020019162000232565b820191906000526020600020905b8154815290600101906020018083116200021457829003601f168201915b5050505050905090565b8280546200024a906200031b565b90600052602060002090601f0160209004810192826200026e5760008555620002ba565b82601f106200028957805160ff1916838001178555620002ba565b82800160010185558215620002ba579182015b82811115620002b95782518255916020019190600101906200029c565b5b509050620002c99190620002cd565b5090565b5b80821115620002e8576000816000905550600101620002ce565b5090565b7f4e487b7100000000000000000000000000000000000000000000000000000000600052602260045260246000fd5b600060028204905060018216806200033457607f821691505b602082108114156200034b576200034a620002ec565b5b50919050565b6157f380620003616000396000f3fe6080604052600436106101f95760003560e01c806367c623cf1161010d578063a5cd761f116100a0578063c21b74941161006f578063c21b7494146107f9578063c87b56dd1461083b578063e5326ab114610878578063e985e9c5146108a3578063fe5c873a146108e0576101f9565b8063a5cd761f14610711578063b88d4fde1461074e578063b9a2de3a14610777578063bf162d67146107b4576101f9565b806395d89b41116100dc57806395d89b41146106435780639bd2a5741461066e578063a22cb465146106ab578063a46b1fac146106d4576101f9565b806367c623cf146105615780636f9507f91461059e57806370a08231146105c95780638570a81714610606576101f9565b806325e457cd1161019057806343d32ae71161015f57806343d32ae7146104685780635508d8e1146104a5578063557ed1ba146104d05780636352211e146104fb57806364b3090714610538576101f9565b806325e457cd1461039a57806326fe3065146103c557806342842e0e14610402578063439028501461042b576101f9565b80631a7eb8c8116101cc5780631a7eb8c8146102cc5780631dd92a661461030957806321b1e1b11461034657806323b872dd14610371576101f9565b806301ffc9a7146101fe57806306fdde031461023b578063081812fc14610266578063095ea7b3146102a3575b600080fd5b34801561020a57600080fd5b5061022560048036038101906102209190614002565b610910565b604051610232919061404a565b60405180910390f35b34801561024757600080fd5b506102506109f2565b60405161025d91906140fe565b60405180910390f35b34801561027257600080fd5b5061028d60048036038101906102889190614156565b610a84565b60405161029a91906141c4565b60405180910390f35b3480156102af57600080fd5b506102ca60048036038101906102c5919061420b565b610b09565b005b3480156102d857600080fd5b506102f360048036038101906102ee919061420b565b610c21565b604051610300919061425a565b60405180910390f35b34801561031557600080fd5b50610330600480360381019061032b9190614275565b610c52565b60405161033d919061404a565b60405180910390f35b34801561035257600080fd5b5061035b611516565b60405161036891906140fe565b60405180910390f35b34801561037d57600080fd5b50610398600480360381019061039391906142b5565b6115a4565b005b3480156103a657600080fd5b506103af611604565b6040516103bc919061425a565b60405180910390f35b3480156103d157600080fd5b506103ec60048036038101906103e79190614308565b61160a565b6040516103f9919061425a565b60405180910390f35b34801561040e57600080fd5b50610429600480360381019061042491906142b5565b61162f565b005b34801561043757600080fd5b50610452600480360381019061044d9190614348565b61164f565b60405161045f919061425a565b60405180910390f35b34801561047457600080fd5b5061048f600480360381019061048a91906144aa565b611666565b60405161049c919061404a565b60405180910390f35b3480156104b157600080fd5b506104ba61169c565b6040516104c7919061425a565b60405180910390f35b3480156104dc57600080fd5b506104e56116a2565b6040516104f2919061425a565b60405180910390f35b34801561050757600080fd5b50610522600480360381019061051d9190614156565b6116aa565b60405161052f91906141c4565b60405180910390f35b34801561054457600080fd5b5061055f600480360381019061055a91906144f3565b61175c565b005b34801561056d57600080fd5b5061058860048036038101906105839190614156565b611ae5565b60405161059591906140fe565b60405180910390f35b3480156105aa57600080fd5b506105b3611afd565b6040516105c091906140fe565b60405180910390f35b3480156105d557600080fd5b506105f060048036038101906105eb9190614348565b611b8b565b6040516105fd919061425a565b60405180910390f35b34801561061257600080fd5b5061062d60048036038101906106289190614348565b611c43565b60405161063a919061425a565b60405180910390f35b34801561064f57600080fd5b50610658611c5b565b60405161066591906140fe565b60405180910390f35b34801561067a57600080fd5b506106956004803603810190610690919061457e565b611ced565b6040516106a2919061404a565b60405180910390f35b3480156106b757600080fd5b506106d260048036038101906106cd91906145fd565b6122d1565b005b3480156106e057600080fd5b506106fb60048036038101906106f691906144aa565b612452565b604051610708919061404a565b60405180910390f35b34801561071d57600080fd5b5061073860048036038101906107339190614156565b612488565b60405161074591906141c4565b60405180910390f35b34801561075a57600080fd5b50610775600480360381019061077091906146de565b61249f565b005b34801561078357600080fd5b5061079e60048036038101906107999190614156565b612501565b6040516107ab919061404a565b60405180910390f35b3480156107c057600080fd5b506107db60048036038101906107d69190614156565b612737565b6040516107f099989796959493929190614782565b60405180910390f35b34801561080557600080fd5b50610820600480360381019061081b9190614156565b612902565b6040516108329695949392919061481d565b60405180910390f35b34801561084757600080fd5b50610862600480360381019061085d9190614156565b612978565b60405161086f91906140fe565b60405180910390f35b34801561088457600080fd5b5061088d612aca565b60405161089a91906140fe565b60405180910390f35b3480156108af57600080fd5b506108ca60048036038101906108c5919061487e565b612b58565b6040516108d7919061404a565b60405180910390f35b6108fa60048036038101906108f59190614156565b612bec565b604051610907919061404a565b60405180910390f35b60007f80ac58cd000000000000000000000000000000000000000000000000000000007bffffffffffffffffffffffffffffffffffffffffffffffffffffffff1916827bffffffffffffffffffffffffffffffffffffffffffffffffffffffff191614806109db57507f5b5e139f000000000000000000000000000000000000000000000000000000007bffffffffffffffffffffffffffffffffffffffffffffffffffffffff1916827bffffffffffffffffffffffffffffffffffffffffffffffffffffffff1916145b806109eb57506109ea8261333d565b5b9050919050565b606060008054610a01906148ed565b80601f0160208091040260200160405190810160405280929190818152602001828054610a2d906148ed565b8015610a7a5780601f10610a4f57610100808354040283529160200191610a7a565b820191906000526020600020905b815481529060010190602001808311610a5d57829003601f168201915b5050505050905090565b6000610a8f826133a7565b610ace576040517f08c379a0000000000000000000000000000000000000000000000000000000008152600401610ac590614991565b60405180910390fd5b6004600083815260200190815260200160002060009054906101000a900473ffffffffffffffffffffffffffffffffffffffff169050919050565b6000610b14826116aa565b90508073ffffffffffffffffffffffffffffffffffffffff168373ffffffffffffffffffffffffffffffffffffffff161415610b85576040517f08c379a0000000000000000000000000000000000000000000000000000000008152600401610b7c90614a23565b60405180910390fd5b8073ffffffffffffffffffffffffffffffffffffffff16610ba4613413565b73ffffffffffffffffffffffffffffffffffffffff161480610bd35750610bd281610bcd613413565b612b58565b5b610c12576040517f08c379a0000000000000000000000000000000000000000000000000000000008152600401610c0990614ab5565b60405180910390fd5b610c1c838361341b565b505050565b600f6020528160005260406000208181548110610c3d57600080fd5b90600052602060002001600091509150505481565b600082610c5e816133a7565b610c9d576040517f08c379a0000000000000000000000000000000000000000000000000000000008152600401610c9490614b21565b60405180910390fd5b83610ca7816116aa565b73ffffffffffffffffffffffffffffffffffffffff163373ffffffffffffffffffffffffffffffffffffffff161415610d15576040517f08c379a0000000000000000000000000000000000000000000000000000000008152600401610d0c90614b8d565b60405180910390fd5b846000600d60008381526020019081526020016000206040518060c0016040529081600082015481526020016001820160009054906101000a900473ffffffffffffffffffffffffffffffffffffffff1673ffffffffffffffffffffffffffffffffffffffff1673ffffffffffffffffffffffffffffffffffffffff16815260200160028201548152602001600382015481526020016004820160009054906101000a900460ff161515151581526020016004820160019054906101000a900460ff16151515158152505090508060600151421115610e29576040517f08c379a0000000000000000000000000000000000000000000000000000000008152600401610e2090614bf9565b60405180910390fd5b6000600d60008981526020019081526020016000206040518060c0016040529081600082015481526020016001820160009054906101000a900473ffffffffffffffffffffffffffffffffffffffff1673ffffffffffffffffffffffffffffffffffffffff1673ffffffffffffffffffffffffffffffffffffffff16815260200160028201548152602001600382015481526020016004820160009054906101000a900460ff161515151581526020016004820160019054906101000a900460ff161515151581525050905080604001518711610f0557600080fd5b6000600c60008a81526020019081526020016000206040518061012001604052908160008201548152602001600182018054610f40906148ed565b80601f0160208091040260200160405190810160405280929190818152602001828054610f6c906148ed565b8015610fb95780601f10610f8e57610100808354040283529160200191610fb9565b820191906000526020600020905b815481529060010190602001808311610f9c57829003601f168201915b50505050508152602001600282018054610fd2906148ed565b80601f0160208091040260200160405190810160405280929190818152602001828054610ffe906148ed565b801561104b5780601f106110205761010080835404028352916020019161104b565b820191906000526020600020905b81548152906001019060200180831161102e57829003601f168201915b505050505081526020016003820160009054906101000a900473ffffffffffffffffffffffffffffffffffffffff1673ffffffffffffffffffffffffffffffffffffffff1673ffffffffffffffffffffffffffffffffffffffff1681526020016004820160009054906101000a900473ffffffffffffffffffffffffffffffffffffffff1673ffffffffffffffffffffffffffffffffffffffff1673ffffffffffffffffffffffffffffffffffffffff1681526020016005820160009054906101000a900473ffffffffffffffffffffffffffffffffffffffff1673ffffffffffffffffffffffffffffffffffffffff1673ffffffffffffffffffffffffffffffffffffffff16815260200160068201548152602001600782015481526020016008820160009054906101000a900460ff1615151515815250509050878160c001818152505080600c60008b81526020019081526020016000206000820151816000015560208201518160010190805190602001906111cb929190613ef3565b5060408201518160020190805190602001906111e8929190613ef3565b5060608201518160030160006101000a81548173ffffffffffffffffffffffffffffffffffffffff021916908373ffffffffffffffffffffffffffffffffffffffff16021790555060808201518160040160006101000a81548173ffffffffffffffffffffffffffffffffffffffff021916908373ffffffffffffffffffffffffffffffffffffffff16021790555060a08201518160050160006101000a81548173ffffffffffffffffffffffffffffffffffffffff021916908373ffffffffffffffffffffffffffffffffffffffff16021790555060c0820151816006015560e082015181600701556101008201518160080160006101000a81548160ff0219169083151502179055509050506001601060003373ffffffffffffffffffffffffffffffffffffffff1673ffffffffffffffffffffffffffffffffffffffff16815260200190815260200160002060008282546113469190614c48565b92505081905550600f60003373ffffffffffffffffffffffffffffffffffffffff1673ffffffffffffffffffffffffffffffffffffffff16815260200190815260200160002089908060018154018082558091505060019003906000526020600020016000909190919091505587600e60008b815260200190815260200160002060003373ffffffffffffffffffffffffffffffffffffffff1673ffffffffffffffffffffffffffffffffffffffff1681526020019081526020016000208190555033826020019073ffffffffffffffffffffffffffffffffffffffff16908173ffffffffffffffffffffffffffffffffffffffff16815250508782604001818152505081600d60008b81526020019081526020016000206000820151816000015560208201518160010160006101000a81548173ffffffffffffffffffffffffffffffffffffffff021916908373ffffffffffffffffffffffffffffffffffffffff160217905550604082015181600201556060820151816003015560808201518160040160006101000a81548160ff02191690831515021790555060a08201518160040160016101000a81548160ff0219169083151502179055509050506001965050505050505092915050565b60088054611523906148ed565b80601f016020809104026020016040519081016040528092919081815260200182805461154f906148ed565b801561159c5780601f106115715761010080835404028352916020019161159c565b820191906000526020600020905b81548152906001019060200180831161157f57829003601f168201915b505050505081565b6115b56115af613413565b826134d4565b6115f4576040517f08c379a00000000000000000000000000000000000000000000000000000000081526004016115eb90614d10565b60405180910390fd5b6115ff8383836135b2565b505050565b600b5481565b600e602052816000526040600020602052806000526040600020600091509150505481565b61164a8383836040518060200160405280600081525061249f565b505050565b60008061165b83611b8b565b905080915050919050565b6012818051602081018201805184825260208301602085012081835280955050505050506000915054906101000a900460ff1681565b600a5481565b600042905090565b6000806002600084815260200190815260200160002060009054906101000a900473ffffffffffffffffffffffffffffffffffffffff169050600073ffffffffffffffffffffffffffffffffffffffff168173ffffffffffffffffffffffffffffffffffffffff161415611753576040517f08c379a000000000000000000000000000000000000000000000000000000000815260040161174a90614da2565b60405180910390fd5b80915050919050565b600073ffffffffffffffffffffffffffffffffffffffff163373ffffffffffffffffffffffffffffffffffffffff1614156117cc576040517f08c379a00000000000000000000000000000000000000000000000000000000081526004016117c390614e34565b60405180910390fd5b600a60008154809291906117df90614e54565b91905055506117ef600a546133a7565b156117f957600080fd5b6012826040516118099190614ed9565b908152602001604051809103902060009054906101000a900460ff161561182f57600080fd5b60118360405161183f9190614ed9565b908152602001604051809103902060009054906101000a900460ff161561186557600080fd5b61187133600a5461380e565b61187d600a548361382c565b600160128360405161188f9190614ed9565b908152602001604051809103902060006101000a81548160ff02191690831515021790555060016011846040516118c69190614ed9565b908152602001604051809103902060006101000a81548160ff0219169083151502179055506000604051806101200160405280600a5481526020018581526020018481526020013373ffffffffffffffffffffffffffffffffffffffff1681526020013373ffffffffffffffffffffffffffffffffffffffff168152602001600073ffffffffffffffffffffffffffffffffffffffff1681526020018381526020016000815260200160001515815250905080600c6000600a5481526020019081526020016000206000820151816000015560208201518160010190805190602001906119b4929190613ef3565b5060408201518160020190805190602001906119d1929190613ef3565b5060608201518160030160006101000a81548173ffffffffffffffffffffffffffffffffffffffff021916908373ffffffffffffffffffffffffffffffffffffffff16021790555060808201518160040160006101000a81548173ffffffffffffffffffffffffffffffffffffffff021916908373ffffffffffffffffffffffffffffffffffffffff16021790555060a08201518160050160006101000a81548173ffffffffffffffffffffffffffffffffffffffff021916908373ffffffffffffffffffffffffffffffffffffffff16021790555060c0820151816006015560e082015181600701556101008201518160080160006101000a81548160ff02191690831515021790555090505050505050565b60606000611af283612978565b905080915050919050565b60098054611b0a906148ed565b80601f0160208091040260200160405190810160405280929190818152602001828054611b36906148ed565b8015611b835780601f10611b5857610100808354040283529160200191611b83565b820191906000526020600020905b815481529060010190602001808311611b6657829003601f168201915b505050505081565b60008073ffffffffffffffffffffffffffffffffffffffff168273ffffffffffffffffffffffffffffffffffffffff161415611bfc576040517f08c379a0000000000000000000000000000000000000000000000000000000008152600401611bf390614f62565b60405180910390fd5b600360008373ffffffffffffffffffffffffffffffffffffffff1673ffffffffffffffffffffffffffffffffffffffff168152602001908152602001600020549050919050565b60106020528060005260406000206000915090505481565b606060018054611c6a906148ed565b80601f0160208091040260200160405190810160405280929190818152602001828054611c96906148ed565b8015611ce35780601f10611cb857610100808354040283529160200191611ce3565b820191906000526020600020905b815481529060010190602001808311611cc657829003601f168201915b5050505050905090565b600083611cf9816133a7565b611d38576040517f08c379a0000000000000000000000000000000000000000000000000000000008152600401611d2f90614b21565b60405180910390fd5b84611d42816116aa565b73ffffffffffffffffffffffffffffffffffffffff163373ffffffffffffffffffffffffffffffffffffffff1614611daf576040517f08c379a0000000000000000000000000000000000000000000000000000000008152600401611da690614ff4565b60405180910390fd5b60008442611dbd9190614c48565b90506000600c60008981526020019081526020016000206040518061012001604052908160008201548152602001600182018054611dfa906148ed565b80601f0160208091040260200160405190810160405280929190818152602001828054611e26906148ed565b8015611e735780601f10611e4857610100808354040283529160200191611e73565b820191906000526020600020905b815481529060010190602001808311611e5657829003601f168201915b50505050508152602001600282018054611e8c906148ed565b80601f0160208091040260200160405190810160405280929190818152602001828054611eb8906148ed565b8015611f055780601f10611eda57610100808354040283529160200191611f05565b820191906000526020600020905b815481529060010190602001808311611ee857829003601f168201915b505050505081526020016003820160009054906101000a900473ffffffffffffffffffffffffffffffffffffffff1673ffffffffffffffffffffffffffffffffffffffff1673ffffffffffffffffffffffffffffffffffffffff1681526020016004820160009054906101000a900473ffffffffffffffffffffffffffffffffffffffff1673ffffffffffffffffffffffffffffffffffffffff1673ffffffffffffffffffffffffffffffffffffffff1681526020016005820160009054906101000a900473ffffffffffffffffffffffffffffffffffffffff1673ffffffffffffffffffffffffffffffffffffffff1673ffffffffffffffffffffffffffffffffffffffff16815260200160068201548152602001600782015481526020016008820160009054906101000a900460ff161515151581525050905060018161010001901515908115158152505060006040518060c001604052808981526020013373ffffffffffffffffffffffffffffffffffffffff16815260200189815260200184815260200160001515815260200160001515815250905081600c60008b81526020019081526020016000206000820151816000015560208201518160010190805190602001906120da929190613ef3565b5060408201518160020190805190602001906120f7929190613ef3565b5060608201518160030160006101000a81548173ffffffffffffffffffffffffffffffffffffffff021916908373ffffffffffffffffffffffffffffffffffffffff16021790555060808201518160040160006101000a81548173ffffffffffffffffffffffffffffffffffffffff021916908373ffffffffffffffffffffffffffffffffffffffff16021790555060a08201518160050160006101000a81548173ffffffffffffffffffffffffffffffffffffffff021916908373ffffffffffffffffffffffffffffffffffffffff16021790555060c0820151816006015560e082015181600701556101008201518160080160006101000a81548160ff02191690831515021790555090505080600d60008b81526020019081526020016000206000820151816000015560208201518160010160006101000a81548173ffffffffffffffffffffffffffffffffffffffff021916908373ffffffffffffffffffffffffffffffffffffffff160217905550604082015181600201556060820151816003015560808201518160040160006101000a81548160ff02191690831515021790555060a08201518160040160016101000a81548160ff0219169083151502179055509050506001955050505050509392505050565b6122d9613413565b73ffffffffffffffffffffffffffffffffffffffff168273ffffffffffffffffffffffffffffffffffffffff161415612347576040517f08c379a000000000000000000000000000000000000000000000000000000000815260040161233e90615060565b60405180910390fd5b8060056000612354613413565b73ffffffffffffffffffffffffffffffffffffffff1673ffffffffffffffffffffffffffffffffffffffff16815260200190815260200160002060008473ffffffffffffffffffffffffffffffffffffffff1673ffffffffffffffffffffffffffffffffffffffff16815260200190815260200160002060006101000a81548160ff0219169083151502179055508173ffffffffffffffffffffffffffffffffffffffff16612401613413565b73ffffffffffffffffffffffffffffffffffffffff167f17307eab39ab6107e8899845ad3d59bd9653f200f220920489ca2b5937696c3183604051612446919061404a565b60405180910390a35050565b6011818051602081018201805184825260208301602085012081835280955050505050506000915054906101000a900460ff1681565b600080612494836116aa565b905080915050919050565b6124b06124aa613413565b836134d4565b6124ef576040517f08c379a00000000000000000000000000000000000000000000000000000000081526004016124e690614d10565b60405180910390fd5b6124fb848484846138a0565b50505050565b60008161250d816133a7565b61254c576040517f08c379a000000000000000000000000000000000000000000000000000000000815260040161254390614b21565b60405180910390fd5b6000600d60008581526020019081526020016000206040518060c0016040529081600082015481526020016001820160009054906101000a900473ffffffffffffffffffffffffffffffffffffffff1673ffffffffffffffffffffffffffffffffffffffff1673ffffffffffffffffffffffffffffffffffffffff16815260200160028201548152602001600382015481526020016004820160009054906101000a900460ff161515151581526020016004820160019054906101000a900460ff1615151515815250509050806060015142101561265f576040517f08c379a0000000000000000000000000000000000000000000000000000000008152600401612656906150cc565b60405180910390fd5b600181608001901515908115158152505080600d60008681526020019081526020016000206000820151816000015560208201518160010160006101000a81548173ffffffffffffffffffffffffffffffffffffffff021916908373ffffffffffffffffffffffffffffffffffffffff160217905550604082015181600201556060820151816003015560808201518160040160006101000a81548160ff02191690831515021790555060a08201518160040160016101000a81548160ff021916908315150217905550905050600192505050919050565b600c602052806000526040600020600091509050806000015490806001018054612760906148ed565b80601f016020809104026020016040519081016040528092919081815260200182805461278c906148ed565b80156127d95780601f106127ae576101008083540402835291602001916127d9565b820191906000526020600020905b8154815290600101906020018083116127bc57829003601f168201915b5050505050908060020180546127ee906148ed565b80601f016020809104026020016040519081016040528092919081815260200182805461281a906148ed565b80156128675780601f1061283c57610100808354040283529160200191612867565b820191906000526020600020905b81548152906001019060200180831161284a57829003601f168201915b5050505050908060030160009054906101000a900473ffffffffffffffffffffffffffffffffffffffff16908060040160009054906101000a900473ffffffffffffffffffffffffffffffffffffffff16908060050160009054906101000a900473ffffffffffffffffffffffffffffffffffffffff16908060060154908060070154908060080160009054906101000a900460ff16905089565b600d6020528060005260406000206000915090508060000154908060010160009054906101000a900473ffffffffffffffffffffffffffffffffffffffff16908060020154908060030154908060040160009054906101000a900460ff16908060040160019054906101000a900460ff16905086565b6060612983826133a7565b6129c2576040517f08c379a00000000000000000000000000000000000000000000000000000000081526004016129b99061515e565b60405180910390fd5b60006006600084815260200190815260200160002080546129e2906148ed565b80601f0160208091040260200160405190810160405280929190818152602001828054612a0e906148ed565b8015612a5b5780601f10612a3057610100808354040283529160200191612a5b565b820191906000526020600020905b815481529060010190602001808311612a3e57829003601f168201915b505050505090506000612a6c6138fc565b9050600081511415612a82578192505050612ac5565b600082511115612ab7578082604051602001612a9f92919061517e565b60405160208183030381529060405292505050612ac5565b612ac084613913565b925050505b919050565b60078054612ad7906148ed565b80601f0160208091040260200160405190810160405280929190818152602001828054612b03906148ed565b8015612b505780601f10612b2557610100808354040283529160200191612b50565b820191906000526020600020905b815481529060010190602001808311612b3357829003601f168201915b505050505081565b6000600560008473ffffffffffffffffffffffffffffffffffffffff1673ffffffffffffffffffffffffffffffffffffffff16815260200190815260200160002060008373ffffffffffffffffffffffffffffffffffffffff1673ffffffffffffffffffffffffffffffffffffffff16815260200190815260200160002060009054906101000a900460ff16905092915050565b600081612bf8816133a7565b612c37576040517f08c379a0000000000000000000000000000000000000000000000000000000008152600401612c2e90614b21565b60405180910390fd5b600073ffffffffffffffffffffffffffffffffffffffff163373ffffffffffffffffffffffffffffffffffffffff161415612ca7576040517f08c379a0000000000000000000000000000000000000000000000000000000008152600401612c9e90614e34565b60405180910390fd5b6000600d60008581526020019081526020016000206040518060c0016040529081600082015481526020016001820160009054906101000a900473ffffffffffffffffffffffffffffffffffffffff1673ffffffffffffffffffffffffffffffffffffffff1673ffffffffffffffffffffffffffffffffffffffff16815260200160028201548152602001600382015481526020016004820160009054906101000a900460ff161515151581526020016004820160019054906101000a900460ff16151515158152505090508060800151612db7576040517f08c379a0000000000000000000000000000000000000000000000000000000008152600401612dae906150cc565b60405180910390fd5b8060a0015115612dc657600080fd5b806020015173ffffffffffffffffffffffffffffffffffffffff163373ffffffffffffffffffffffffffffffffffffffff1614612e0257600080fd5b6000612e0d856116aa565b9050600073ffffffffffffffffffffffffffffffffffffffff168173ffffffffffffffffffffffffffffffffffffffff161415612e4957600080fd5b6000600c60008781526020019081526020016000206040518061012001604052908160008201548152602001600182018054612e84906148ed565b80601f0160208091040260200160405190810160405280929190818152602001828054612eb0906148ed565b8015612efd5780601f10612ed257610100808354040283529160200191612efd565b820191906000526020600020905b815481529060010190602001808311612ee057829003601f168201915b50505050508152602001600282018054612f16906148ed565b80601f0160208091040260200160405190810160405280929190818152602001828054612f42906148ed565b8015612f8f5780601f10612f6457610100808354040283529160200191612f8f565b820191906000526020600020905b815481529060010190602001808311612f7257829003601f168201915b505050505081526020016003820160009054906101000a900473ffffffffffffffffffffffffffffffffffffffff1673ffffffffffffffffffffffffffffffffffffffff1673ffffffffffffffffffffffffffffffffffffffff1681526020016004820160009054906101000a900473ffffffffffffffffffffffffffffffffffffffff1673ffffffffffffffffffffffffffffffffffffffff1673ffffffffffffffffffffffffffffffffffffffff1681526020016005820160009054906101000a900473ffffffffffffffffffffffffffffffffffffffff1673ffffffffffffffffffffffffffffffffffffffff1673ffffffffffffffffffffffffffffffffffffffff16815260200160068201548152602001600782015481526020016008820160009054906101000a900460ff16151515158152505090506130d68233886135b2565b8173ffffffffffffffffffffffffffffffffffffffff166108fc349081150290604051600060405180830381858888f1935050505015801561311c573d6000803e3d6000fd5b5080608001518160a0019073ffffffffffffffffffffffffffffffffffffffff16908173ffffffffffffffffffffffffffffffffffffffff168152505033816080019073ffffffffffffffffffffffffffffffffffffffff16908173ffffffffffffffffffffffffffffffffffffffff168152505082604001518160c001818152505060018160e0018181516131b29190614c48565b9150818152505060008161010001901515908115158152505080600c6000888152602001908152602001600020600082015181600001556020820151816001019080519060200190613205929190613ef3565b506040820151816002019080519060200190613222929190613ef3565b5060608201518160030160006101000a81548173ffffffffffffffffffffffffffffffffffffffff021916908373ffffffffffffffffffffffffffffffffffffffff16021790555060808201518160040160006101000a81548173ffffffffffffffffffffffffffffffffffffffff021916908373ffffffffffffffffffffffffffffffffffffffff16021790555060a08201518160050160006101000a81548173ffffffffffffffffffffffffffffffffffffffff021916908373ffffffffffffffffffffffffffffffffffffffff16021790555060c0820151816006015560e082015181600701556101008201518160080160006101000a81548160ff0219169083151502179055509050506001945050505050919050565b60007f01ffc9a7000000000000000000000000000000000000000000000000000000007bffffffffffffffffffffffffffffffffffffffffffffffffffffffff1916827bffffffffffffffffffffffffffffffffffffffffffffffffffffffff1916149050919050565b60008073ffffffffffffffffffffffffffffffffffffffff166002600084815260200190815260200160002060009054906101000a900473ffffffffffffffffffffffffffffffffffffffff1673ffffffffffffffffffffffffffffffffffffffff1614159050919050565b600033905090565b816004600083815260200190815260200160002060006101000a81548173ffffffffffffffffffffffffffffffffffffffff021916908373ffffffffffffffffffffffffffffffffffffffff160217905550808273ffffffffffffffffffffffffffffffffffffffff1661348e836116aa565b73ffffffffffffffffffffffffffffffffffffffff167f8c5be1e5ebec7d5bd14f71427d1e84f3dd0314c0f7b2291e5b200ac8c7c3b92560405160405180910390a45050565b60006134df826133a7565b61351e576040517f08c379a000000000000000000000000000000000000000000000000000000000815260040161351590615214565b60405180910390fd5b6000613529836116aa565b90508073ffffffffffffffffffffffffffffffffffffffff168473ffffffffffffffffffffffffffffffffffffffff16148061359857508373ffffffffffffffffffffffffffffffffffffffff1661358084610a84565b73ffffffffffffffffffffffffffffffffffffffff16145b806135a957506135a88185612b58565b5b91505092915050565b8273ffffffffffffffffffffffffffffffffffffffff166135d2826116aa565b73ffffffffffffffffffffffffffffffffffffffff1614613628576040517f08c379a000000000000000000000000000000000000000000000000000000000815260040161361f906152a6565b60405180910390fd5b600073ffffffffffffffffffffffffffffffffffffffff168273ffffffffffffffffffffffffffffffffffffffff161415613698576040517f08c379a000000000000000000000000000000000000000000000000000000000815260040161368f90615338565b60405180910390fd5b6136a38383836139ba565b6136ae60008261341b565b6001600360008573ffffffffffffffffffffffffffffffffffffffff1673ffffffffffffffffffffffffffffffffffffffff16815260200190815260200160002060008282546136fe9190615358565b925050819055506001600360008473ffffffffffffffffffffffffffffffffffffffff1673ffffffffffffffffffffffffffffffffffffffff16815260200190815260200160002060008282546137559190614c48565b92505081905550816002600083815260200190815260200160002060006101000a81548173ffffffffffffffffffffffffffffffffffffffff021916908373ffffffffffffffffffffffffffffffffffffffff160217905550808273ffffffffffffffffffffffffffffffffffffffff168473ffffffffffffffffffffffffffffffffffffffff167fddf252ad1be2c89b69c2b068fc378daa952ba7f163c4a11628f55a4df523b3ef60405160405180910390a4505050565b6138288282604051806020016040528060008152506139bf565b5050565b613835826133a7565b613874576040517f08c379a000000000000000000000000000000000000000000000000000000000815260040161386b906153fe565b60405180910390fd5b8060066000848152602001908152602001600020908051906020019061389b929190613ef3565b505050565b6138ab8484846135b2565b6138b784848484613a1a565b6138f6576040517f08c379a00000000000000000000000000000000000000000000000000000000081526004016138ed90615490565b60405180910390fd5b50505050565b606060405180602001604052806000815250905090565b606061391e826133a7565b61395d576040517f08c379a000000000000000000000000000000000000000000000000000000000815260040161395490615522565b60405180910390fd5b60006139676138fc565b9050600081511161398757604051806020016040528060008152506139b2565b8061399184613bb1565b6040516020016139a292919061517e565b6040516020818303038152906040525b915050919050565b505050565b6139c98383613d12565b6139d66000848484613a1a565b613a15576040517f08c379a0000000000000000000000000000000000000000000000000000000008152600401613a0c90615490565b60405180910390fd5b505050565b6000613a3b8473ffffffffffffffffffffffffffffffffffffffff16613ee0565b15613ba4578373ffffffffffffffffffffffffffffffffffffffff1663150b7a02613a64613413565b8786866040518563ffffffff1660e01b8152600401613a869493929190615597565b602060405180830381600087803b158015613aa057600080fd5b505af1925050508015613ad157506040513d601f19601f82011682018060405250810190613ace91906155f8565b60015b613b54573d8060008114613b01576040519150601f19603f3d011682016040523d82523d6000602084013e613b06565b606091505b50600081511415613b4c576040517f08c379a0000000000000000000000000000000000000000000000000000000008152600401613b4390615490565b60405180910390fd5b805181602001fd5b63150b7a0260e01b7bffffffffffffffffffffffffffffffffffffffffffffffffffffffff1916817bffffffffffffffffffffffffffffffffffffffffffffffffffffffff191614915050613ba9565b600190505b949350505050565b60606000821415613bf9576040518060400160405280600181526020017f30000000000000000000000000000000000000000000000000000000000000008152509050613d0d565b600082905060005b60008214613c2b578080613c1490614e54565b915050600a82613c249190615654565b9150613c01565b60008167ffffffffffffffff811115613c4757613c4661437f565b5b6040519080825280601f01601f191660200182016040528015613c795781602001600182028036833780820191505090505b5090505b60008514613d0657600182613c929190615358565b9150600a85613ca19190615685565b6030613cad9190614c48565b60f81b818381518110613cc357613cc26156b6565b5b60200101907effffffffffffffffffffffffffffffffffffffffffffffffffffffffffffff1916908160001a905350600a85613cff9190615654565b9450613c7d565b8093505050505b919050565b600073ffffffffffffffffffffffffffffffffffffffff168273ffffffffffffffffffffffffffffffffffffffff161415613d82576040517f08c379a0000000000000000000000000000000000000000000000000000000008152600401613d7990615731565b60405180910390fd5b613d8b816133a7565b15613dcb576040517f08c379a0000000000000000000000000000000000000000000000000000000008152600401613dc29061579d565b60405180910390fd5b613dd7600083836139ba565b6001600360008473ffffffffffffffffffffffffffffffffffffffff1673ffffffffffffffffffffffffffffffffffffffff1681526020019081526020016000206000828254613e279190614c48565b92505081905550816002600083815260200190815260200160002060006101000a81548173ffffffffffffffffffffffffffffffffffffffff021916908373ffffffffffffffffffffffffffffffffffffffff160217905550808273ffffffffffffffffffffffffffffffffffffffff16600073ffffffffffffffffffffffffffffffffffffffff167fddf252ad1be2c89b69c2b068fc378daa952ba7f163c4a11628f55a4df523b3ef60405160405180910390a45050565b600080823b905060008111915050919050565b828054613eff906148ed565b90600052602060002090601f016020900481019282613f215760008555613f68565b82601f10613f3a57805160ff1916838001178555613f68565b82800160010185558215613f68579182015b82811115613f67578251825591602001919060010190613f4c565b5b509050613f759190613f79565b5090565b5b80821115613f92576000816000905550600101613f7a565b5090565b6000604051905090565b600080fd5b600080fd5b60007fffffffff0000000000000000000000000000000000000000000000000000000082169050919050565b613fdf81613faa565b8114613fea57600080fd5b50565b600081359050613ffc81613fd6565b92915050565b60006020828403121561401857614017613fa0565b5b600061402684828501613fed565b91505092915050565b60008115159050919050565b6140448161402f565b82525050565b600060208201905061405f600083018461403b565b92915050565b600081519050919050565b600082825260208201905092915050565b60005b8381101561409f578082015181840152602081019050614084565b838111156140ae576000848401525b50505050565b6000601f19601f8301169050919050565b60006140d082614065565b6140da8185614070565b93506140ea818560208601614081565b6140f3816140b4565b840191505092915050565b6000602082019050818103600083015261411881846140c5565b905092915050565b6000819050919050565b61413381614120565b811461413e57600080fd5b50565b6000813590506141508161412a565b92915050565b60006020828403121561416c5761416b613fa0565b5b600061417a84828501614141565b91505092915050565b600073ffffffffffffffffffffffffffffffffffffffff82169050919050565b60006141ae82614183565b9050919050565b6141be816141a3565b82525050565b60006020820190506141d960008301846141b5565b92915050565b6141e8816141a3565b81146141f357600080fd5b50565b600081359050614205816141df565b92915050565b6000806040838503121561422257614221613fa0565b5b6000614230858286016141f6565b925050602061424185828601614141565b9150509250929050565b61425481614120565b82525050565b600060208201905061426f600083018461424b565b92915050565b6000806040838503121561428c5761428b613fa0565b5b600061429a85828601614141565b92505060206142ab85828601614141565b9150509250929050565b6000806000606084860312156142ce576142cd613fa0565b5b60006142dc868287016141f6565b93505060206142ed868287016141f6565b92505060406142fe86828701614141565b9150509250925092565b6000806040838503121561431f5761431e613fa0565b5b600061432d85828601614141565b925050602061433e858286016141f6565b9150509250929050565b60006020828403121561435e5761435d613fa0565b5b600061436c848285016141f6565b91505092915050565b600080fd5b600080fd5b7f4e487b7100000000000000000000000000000000000000000000000000000000600052604160045260246000fd5b6143b7826140b4565b810181811067ffffffffffffffff821117156143d6576143d561437f565b5b80604052505050565b60006143e9613f96565b90506143f582826143ae565b919050565b600067ffffffffffffffff8211156144155761441461437f565b5b61441e826140b4565b9050602081019050919050565b82818337600083830152505050565b600061444d614448846143fa565b6143df565b9050828152602081018484840111156144695761446861437a565b5b61447484828561442b565b509392505050565b600082601f83011261449157614490614375565b5b81356144a184826020860161443a565b91505092915050565b6000602082840312156144c0576144bf613fa0565b5b600082013567ffffffffffffffff8111156144de576144dd613fa5565b5b6144ea8482850161447c565b91505092915050565b60008060006060848603121561450c5761450b613fa0565b5b600084013567ffffffffffffffff81111561452a57614529613fa5565b5b6145368682870161447c565b935050602084013567ffffffffffffffff81111561455757614556613fa5565b5b6145638682870161447c565b925050604061457486828701614141565b9150509250925092565b60008060006060848603121561459757614596613fa0565b5b60006145a586828701614141565b93505060206145b686828701614141565b92505060406145c786828701614141565b9150509250925092565b6145da8161402f565b81146145e557600080fd5b50565b6000813590506145f7816145d1565b92915050565b6000806040838503121561461457614613613fa0565b5b6000614622858286016141f6565b9250506020614633858286016145e8565b9150509250929050565b600067ffffffffffffffff8211156146585761465761437f565b5b614661826140b4565b9050602081019050919050565b600061468161467c8461463d565b6143df565b90508281526020810184848401111561469d5761469c61437a565b5b6146a884828561442b565b509392505050565b600082601f8301126146c5576146c4614375565b5b81356146d584826020860161466e565b91505092915050565b600080600080608085870312156146f8576146f7613fa0565b5b6000614706878288016141f6565b9450506020614717878288016141f6565b935050604061472887828801614141565b925050606085013567ffffffffffffffff81111561474957614748613fa5565b5b614755878288016146b0565b91505092959194509250565b600061476c82614183565b9050919050565b61477c81614761565b82525050565b600061012082019050614798600083018c61424b565b81810360208301526147aa818b6140c5565b905081810360408301526147be818a6140c5565b90506147cd6060830189614773565b6147da6080830188614773565b6147e760a0830187614773565b6147f460c083018661424b565b61480160e083018561424b565b61480f61010083018461403b565b9a9950505050505050505050565b600060c082019050614832600083018961424b565b61483f6020830188614773565b61484c604083018761424b565b614859606083018661424b565b614866608083018561403b565b61487360a083018461403b565b979650505050505050565b6000806040838503121561489557614894613fa0565b5b60006148a3858286016141f6565b92505060206148b4858286016141f6565b9150509250929050565b7f4e487b7100000000000000000000000000000000000000000000000000000000600052602260045260246000fd5b6000600282049050600182168061490557607f821691505b60208210811415614919576149186148be565b5b50919050565b7f4552433732313a20617070726f76656420717565727920666f72206e6f6e657860008201527f697374656e7420746f6b656e0000000000000000000000000000000000000000602082015250565b600061497b602c83614070565b91506149868261491f565b604082019050919050565b600060208201905081810360008301526149aa8161496e565b9050919050565b7f4552433732313a20617070726f76616c20746f2063757272656e74206f776e6560008201527f7200000000000000000000000000000000000000000000000000000000000000602082015250565b6000614a0d602183614070565b9150614a18826149b1565b604082019050919050565b60006020820190508181036000830152614a3c81614a00565b9050919050565b7f4552433732313a20617070726f76652063616c6c6572206973206e6f74206f7760008201527f6e6572206e6f7220617070726f76656420666f7220616c6c0000000000000000602082015250565b6000614a9f603883614070565b9150614aaa82614a43565b604082019050919050565b60006020820190508181036000830152614ace81614a92565b9050919050565b7f546f6b656e20494420646f6573206e6f742065786973742e0000000000000000600082015250565b6000614b0b601883614070565b9150614b1682614ad5565b602082019050919050565b60006020820190508181036000830152614b3a81614afe565b9050919050565b7f4f776e65722063616e6e6f742063616c6c20746869732066756e6374696f6e2e600082015250565b6000614b77602083614070565b9150614b8282614b41565b602082019050919050565b60006020820190508181036000830152614ba681614b6a565b9050919050565b7f41756374696f6e20616c726561647920656e6465642e00000000000000000000600082015250565b6000614be3601683614070565b9150614bee82614bad565b602082019050919050565b60006020820190508181036000830152614c1281614bd6565b9050919050565b7f4e487b7100000000000000000000000000000000000000000000000000000000600052601160045260246000fd5b6000614c5382614120565b9150614c5e83614120565b9250827fffffffffffffffffffffffffffffffffffffffffffffffffffffffffffffffff03821115614c9357614c92614c19565b5b828201905092915050565b7f4552433732313a207472616e736665722063616c6c6572206973206e6f74206f60008201527f776e6572206e6f7220617070726f766564000000000000000000000000000000602082015250565b6000614cfa603183614070565b9150614d0582614c9e565b604082019050919050565b60006020820190508181036000830152614d2981614ced565b9050919050565b7f4552433732313a206f776e657220717565727920666f72206e6f6e657869737460008201527f656e7420746f6b656e0000000000000000000000000000000000000000000000602082015250565b6000614d8c602983614070565b9150614d9782614d30565b604082019050919050565b60006020820190508181036000830152614dbb81614d7f565b9050919050565b7f546865206675636e74696f6e2063616c6c6572206973207a65726f206164647260008201527f657373206163636f756e742e0000000000000000000000000000000000000000602082015250565b6000614e1e602c83614070565b9150614e2982614dc2565b604082019050919050565b60006020820190508181036000830152614e4d81614e11565b9050919050565b6000614e5f82614120565b91507fffffffffffffffffffffffffffffffffffffffffffffffffffffffffffffffff821415614e9257614e91614c19565b5b600182019050919050565b600081905092915050565b6000614eb382614065565b614ebd8185614e9d565b9350614ecd818560208601614081565b80840191505092915050565b6000614ee58284614ea8565b915081905092915050565b7f4552433732313a2062616c616e636520717565727920666f7220746865207a6560008201527f726f206164647265737300000000000000000000000000000000000000000000602082015250565b6000614f4c602a83614070565b9150614f5782614ef0565b604082019050919050565b60006020820190508181036000830152614f7b81614f3f565b9050919050565b7f4f6e6c79206f776e65722063616e2063616c6c20746869732066756e6374696f60008201527f6e2e000000000000000000000000000000000000000000000000000000000000602082015250565b6000614fde602283614070565b9150614fe982614f82565b604082019050919050565b6000602082019050818103600083015261500d81614fd1565b9050919050565b7f4552433732313a20617070726f766520746f2063616c6c657200000000000000600082015250565b600061504a601983614070565b915061505582615014565b602082019050919050565b600060208201905081810360008301526150798161503d565b9050919050565b7f41756374696f6e206e6f742079657420656e6465642e00000000000000000000600082015250565b60006150b6601683614070565b91506150c182615080565b602082019050919050565b600060208201905081810360008301526150e5816150a9565b9050919050565b7f45524337323155524953746f726167653a2055524920717565727920666f722060008201527f6e6f6e6578697374656e7420746f6b656e000000000000000000000000000000602082015250565b6000615148603183614070565b9150615153826150ec565b604082019050919050565b600060208201905081810360008301526151778161513b565b9050919050565b600061518a8285614ea8565b91506151968284614ea8565b91508190509392505050565b7f4552433732313a206f70657261746f7220717565727920666f72206e6f6e657860008201527f697374656e7420746f6b656e0000000000000000000000000000000000000000602082015250565b60006151fe602c83614070565b9150615209826151a2565b604082019050919050565b6000602082019050818103600083015261522d816151f1565b9050919050565b7f4552433732313a207472616e73666572206f6620746f6b656e2074686174206960008201527f73206e6f74206f776e0000000000000000000000000000000000000000000000602082015250565b6000615290602983614070565b915061529b82615234565b604082019050919050565b600060208201905081810360008301526152bf81615283565b9050919050565b7f4552433732313a207472616e7366657220746f20746865207a65726f2061646460008201527f7265737300000000000000000000000000000000000000000000000000000000602082015250565b6000615322602483614070565b915061532d826152c6565b604082019050919050565b6000602082019050818103600083015261535181615315565b9050919050565b600061536382614120565b915061536e83614120565b92508282101561538157615380614c19565b5b828203905092915050565b7f45524337323155524953746f726167653a2055524920736574206f66206e6f6e60008201527f6578697374656e7420746f6b656e000000000000000000000000000000000000602082015250565b60006153e8602e83614070565b91506153f38261538c565b604082019050919050565b60006020820190508181036000830152615417816153db565b9050919050565b7f4552433732313a207472616e7366657220746f206e6f6e20455243373231526560008201527f63656976657220696d706c656d656e7465720000000000000000000000000000602082015250565b600061547a603283614070565b91506154858261541e565b604082019050919050565b600060208201905081810360008301526154a98161546d565b9050919050565b7f4552433732314d657461646174613a2055524920717565727920666f72206e6f60008201527f6e6578697374656e7420746f6b656e0000000000000000000000000000000000602082015250565b600061550c602f83614070565b9150615517826154b0565b604082019050919050565b6000602082019050818103600083015261553b816154ff565b9050919050565b600081519050919050565b600082825260208201905092915050565b600061556982615542565b615573818561554d565b9350615583818560208601614081565b61558c816140b4565b840191505092915050565b60006080820190506155ac60008301876141b5565b6155b960208301866141b5565b6155c6604083018561424b565b81810360608301526155d8818461555e565b905095945050505050565b6000815190506155f281613fd6565b92915050565b60006020828403121561560e5761560d613fa0565b5b600061561c848285016155e3565b91505092915050565b7f4e487b7100000000000000000000000000000000000000000000000000000000600052601260045260246000fd5b600061565f82614120565b915061566a83614120565b92508261567a57615679615625565b5b828204905092915050565b600061569082614120565b915061569b83614120565b9250826156ab576156aa615625565b5b828206905092915050565b7f4e487b7100000000000000000000000000000000000000000000000000000000600052603260045260246000fd5b7f4552433732313a206d696e7420746f20746865207a65726f2061646472657373600082015250565b600061571b602083614070565b9150615726826156e5565b602082019050919050565b6000602082019050818103600083015261574a8161570e565b9050919050565b7f4552433732313a20746f6b656e20616c7265616479206d696e74656400000000600082015250565b6000615787601c83614070565b915061579282615751565b602082019050919050565b600060208201905081810360008301526157b68161577a565b905091905056fea2646970667358221220d6523a019bafc99b2340a0f79a140c778e8f213c2eb9d8686800ec196810464a64736f6c63430008090033",
  "immutableReferences": {},
  "source": "// SPDX-License-Identifier: MIT\npragma solidity ^0.8.0;\n\n// import ERC721 iterface\nimport \"@openzeppelin/contracts/token/ERC721/extensions/ERC721URIStorage.sol\";\n\n// NFTs smart contract inherits ERC721 interface\ncontract NFTAuction is ERC721URIStorage{\n\n    // this contract's token collection name\n    string public collectionName;\n    string public collectionid;\n    // this contract's token symbol\n    string public collectionNameSymbol;\n    // total number of crypto boys minted\n    uint256 public NFTCounter;\n    uint public SaleCounter;\n\n    struct NFT {\n        uint256 tokenID;\n        string tokenName;\n        string tokenURI;\n        address payable mintedBy;\n        address payable currentOwner;\n        address payable previousOwner;\n        uint256 price;\n        uint256 transNum;\n        bool onSale;\n    }\n\n    struct Auction {\n        uint256 minBid;\n        address payable highestBidder;\n        uint256 highestBid;\n        uint endTime;\n        bool ended;\n        bool claimed;\n    }\n\n    mapping(uint256 => NFT) public allNFTs;\n    mapping(uint256 => Auction) public AuctionsOfNFT;\n    mapping(uint256 => mapping(address => uint256)) public fundsByBidder; //map tokenID to fundsByBidder\n    mapping(address => uint256[]) public attendAuctions;\n    mapping(address => uint) public attendAuctionsNum;\n\n    // check if token name exists\n    mapping(string => bool) public tokenNameExists;\n    // check if token URI exists\n    mapping(string => bool) public tokenURIExists;\n\n    // initialize contract while deployment with contract's collection name and token\n    constructor() ERC721(\"NFT Collection\", \"NFT\") {\n        collectionName = name();\n        collectionNameSymbol = symbol();\n    }\n\n    modifier notZeroAddress() {\n        require(\n            msg.sender != address(0),\n            \"The fucntion caller is zero address account.\"\n        );\n        _;\n    }\n\n    modifier isOwner(uint256 _tokenID) {\n        require(\n            msg.sender == ownerOf(_tokenID),\n            \"Only owner can call this function.\"\n        );\n        _;\n    }\n\n    modifier notOwner(uint256 _tokenID) {\n        require(\n            msg.sender != ownerOf(_tokenID),\n            \"Owner cannot call this function.\"\n        );\n        _;\n    }\n\n    modifier notEnded(uint256 _tokenID) {\n        Auction memory auction = AuctionsOfNFT[_tokenID];\n        require(\n            block.timestamp <= auction.endTime,\n            \"Auction already ended.\"\n        );\n        _;\n    }\n\n    modifier tokenExist(uint256 _tokenID) {\n        require(\n            _exists(_tokenID),\n            \"Token ID does not exist.\"\n        );\n        _;\n    }\n\n    function getTime() public view returns (uint) {\n        return block.timestamp;\n    }\n\n    // mint a new NFT\n    function mintNFT(string memory _name, string memory  _tokenURI, uint256 _price) external notZeroAddress {\n        // increment counter\n        NFTCounter++;\n        // check if a token exists with the above token id =>   incremented counter\n        require(!_exists(NFTCounter));\n        // check if the token URI already exists or not\n        require(!tokenURIExists[_tokenURI]);\n        // check if the token name already exists or not\n        require(!tokenNameExists[_name]);\n    \n        // mint the token\n        _safeMint(msg.sender, NFTCounter);\n        // set token URI (bind token id with the passed in token URI)\n        _setTokenURI(NFTCounter, _tokenURI);\n    \n        // make passed token URI as exists\n        tokenURIExists[_tokenURI] = true;\n        // make token name passed as exists\n        tokenNameExists[_name] = true;\n    \n        // creat a new NFT (struct) and pass in new values\n        NFT memory newNFT = NFT(\n            NFTCounter,\n            _name,\n            _tokenURI,\n            payable(msg.sender),\n            payable(msg.sender),\n            payable(address(0)),\n            _price,\n            0,\n            false\n        );\n        // add the token id and it's NFT to all NFTs mapping\n        allNFTs[NFTCounter] = newNFT;\n    }\n  \n    // get owner of the token\n    function getTokenOwner(uint256 _tokenID) public view returns  (address) {\n        address _tokenOwner = ownerOf(_tokenID);\n        return _tokenOwner;\n    }\n  \n    // get metadata of the token\n    function getTokenMetaData(uint _tokenID) public view returns  (string memory) {\n        string memory tokenMetaData = tokenURI(_tokenID);\n        return tokenMetaData;\n    }\n  \n    // get total number of tokens owned by an address\n    function getTotalNumberOfTokensOwnedByAnAddress(address _owner) public view returns(uint256) {\n        uint256 totalNumberOfTokensOwned = balanceOf(_owner);\n        return totalNumberOfTokensOwned;\n    }\n  \n    function beginAuction(uint256 _tokenID, uint256 _minBid, uint _duration) tokenExist(_tokenID) isOwner(_tokenID) public returns (bool success) {\n        uint _endTime = block.timestamp+_duration;\n        NFT memory nft = allNFTs[_tokenID];\n        nft.onSale = true;\n        Auction memory newAuction = Auction(\n            _minBid,\n            payable(msg.sender),\n            _minBid,\n            _endTime,\n            false,\n            false\n        );\n\n        allNFTs[_tokenID] = nft;\n        AuctionsOfNFT[_tokenID] = newAuction;\n        return true;\n    }\n\n    function increaseBid(uint256 _tokenID, uint256 newBid) tokenExist(_tokenID) notOwner(_tokenID) notEnded(_tokenID) public returns (bool success) {\n        Auction memory auction = AuctionsOfNFT[_tokenID];\n        if (newBid <= auction.highestBid) revert();\n\n        NFT memory nft = allNFTs[_tokenID];\n        nft.price = newBid;\n        allNFTs[_tokenID] = nft;\n        \n        attendAuctionsNum[msg.sender] += 1;\n        attendAuctions[msg.sender].push(_tokenID);\n        fundsByBidder[_tokenID][msg.sender] = newBid;\n        auction.highestBidder = payable(msg.sender);\n        auction.highestBid = newBid;\n        AuctionsOfNFT[_tokenID] = auction;\n        return true;\n    }\n\n    function endAuction(uint256 _tokenID) tokenExist(_tokenID) public returns (bool success) {\n        Auction memory auction = AuctionsOfNFT[_tokenID];\n        require(block.timestamp >= auction.endTime, \"Auction not yet ended.\");\n\n        auction.ended = true;\n\n        AuctionsOfNFT[_tokenID] = auction;\n        return true;\n    }\n\n    function claimNFT(uint256 _tokenID) public payable tokenExist(_tokenID) notZeroAddress returns (bool success) {\n        Auction memory auction = AuctionsOfNFT[_tokenID];\n        // require(auction.ended);\n        require(auction.ended, \"Auction not yet ended.\");\n        require(!auction.claimed);\n        require(msg.sender == auction.highestBidder);\n        // get the token's owner\n        address tokenOwner = ownerOf(_tokenID);\n        // token's owner should not be an zero address account\n        require(tokenOwner != address(0));\n\n        NFT memory nft = allNFTs[_tokenID];\n        _transfer(tokenOwner, msg.sender, _tokenID);\n        // // get owner of the token\n        // address payable sendTo = nft.currentOwner;\n        // send token's worth of ethers to the owner\n        payable(tokenOwner).transfer(msg.value);\n        nft.previousOwner = nft.currentOwner;\n        nft.currentOwner = payable(msg.sender);\n        nft.price = auction.highestBid;\n        nft.transNum += 1;\n        nft.onSale = false;\n        allNFTs[_tokenID] = nft;\n        return true;\n    }\n}",
  "sourcePath": "D:\\Edgedownload\\dacheng\\NFT\\contracts\\NFTAuction.sol",
  "compiler": {
    "name": "solc",
    "version": "0.8.9+commit.e5eed63a.Emscripten.clang"
  },
  "schemaVersion": "3.4.3",
  "updatedAt": "2021-11-05T19:27:36.442Z",
  "devdoc": {
    "kind": "dev",
    "methods": {
      "approve(address,uint256)": {
        "details": "See {IERC721-approve}."
      },
      "balanceOf(address)": {
        "details": "See {IERC721-balanceOf}."
      },
      "getApproved(uint256)": {
        "details": "See {IERC721-getApproved}."
      },
      "isApprovedForAll(address,address)": {
        "details": "See {IERC721-isApprovedForAll}."
      },
      "name()": {
        "details": "See {IERC721Metadata-name}."
      },
      "ownerOf(uint256)": {
        "details": "See {IERC721-ownerOf}."
      },
      "safeTransferFrom(address,address,uint256)": {
        "details": "See {IERC721-safeTransferFrom}."
      },
      "safeTransferFrom(address,address,uint256,bytes)": {
        "details": "See {IERC721-safeTransferFrom}."
      },
      "setApprovalForAll(address,bool)": {
        "details": "See {IERC721-setApprovalForAll}."
      },
      "supportsInterface(bytes4)": {
        "details": "See {IERC165-supportsInterface}."
      },
      "symbol()": {
        "details": "See {IERC721Metadata-symbol}."
      },
      "tokenURI(uint256)": {
        "details": "See {IERC721Metadata-tokenURI}."
      },
      "transferFrom(address,address,uint256)": {
        "details": "See {IERC721-transferFrom}."
      }
    },
    "version": 1
  },
  "userdoc": {
    "kind": "user",
    "methods": {},
    "version": 1
  }
}